:020000040800F2
:10000000000002205D170008AD170008AD170008BA
:10001000AD170008AD170008AD170008000000007C
:10002000000000000000000000000000AD17000804
:10003000AD17000800000000AD1700082B140008E1
:10004000AD170008AD170008AD170008AD17000880
:10005000AD170008AD170008AD170008AD17000870
:10006000AD170008AD170008AD170008AD17000860
:10007000AD170008AD170008AD170008AD17000850
:10008000AD170008AD170008AD170008000000000C
:10009000000000000000000000000000AD17000894
:1000A000AD170008AD170008AD170008AD17000820
:1000B000AD17000839140008AD170008AD17000887
:1000C000AD170008AD170008AD170008AD17000800
:1000D000AD170008AD170008AD17000800000000BC
:1000E000AD170008AD170008AD17000800000000AC
:1000F000000000000000000000000000AD17000834
:1001000000000000AD170008AD170008AD1700088B
:1001100000000000000000000000000000000000DF
:10012000AD170008AD170008AD170008AD1700089F
:10013000AD170008000000000000000000000000F3
:10014000000000000000000000000000AD170008E3
:10015000AD170008AD170008AD170008AD1700086F
:10016000AD170008AD1700080000000000000000F7
:10017000000000000000000000000000000000007F
:1001800000000000AD1700080000000000000000A3
:08019000AD170008AD170008CF
:1001980010B5054C237833B9044B13B10448AFF3B9
:1001A80000800123237010BD1C0000200000000007
:1001B800F817000808B5034B1BB103490348AFF310
:1001C800008008BD0000000020000020F81700088B
:1001D80053B94AB9002908BF00281CBF4FF0FF31A6
:1001E8004FF0FF3000F072B9ADF1080C6DE904CEA4
:1001F80000F006F8DDF804E0DDE9022304B07047FA
:100208002DE9F047089E04468846002B4BD18A42C8
:10021800154667D9B2FA82F24AB1C2F1200701FA4B
:1002280002F320FA07F7954047EA030894404FEA9B
:10023800154E230CB8FBFEF71FFA85FC0EFB17883A
:1002480043EA084307FB0CF1994209D9EB1807F177
:10025800FF3080F01B81994240F21881023F2B4405
:100268005B1AA4B2B3FBFEF00EFB103344EA03445E
:1002780000FB0CFCA44509D92C1900F1FF3380F0D0
:100288000781A44540F2048102382C4440EA074023
:10029800A4EB0C0400271EB1D4400023C6E9004398
:1002A8003946BDE8F0878B4209D9002E00F0EB8073
:1002B8000027C6E9000138463946BDE8F087B3FA99
:1002C80083F7002F47D18B4202D3824200F2FA8093
:1002D800841A61EB030301209846002EE0D0C6E99A
:1002E8000048DDE702B9FFDEB2FA82F2002A40F0E8
:1002F8008F80491B4FEA154E1FFA85F80127B1FB7D
:10030800FEFC230C0EFB1C1143EA014308FB0CF115
:10031800994207D9EB180CF1FF3002D2994200F24A
:10032800CD808446591AA3B2B1FBFEF00EFB10141F
:1003380043EA044408FB00F8A04507D92C1900F14A
:10034800FF3302D2A04500F2B6801846A4EB080499
:1003580040EA0C409FE7C7F1200CBB4022FA0CFE94
:100368004EEA030E01FA07F420FA0CF521FA0CF311
:100378004FEA1E482543B3FBF8F92C0C08FB193348
:100388001FFA8EFA44EA034309FB0AF49C4202FA74
:1003980007F200FA07F10BD91EEB030309F1FF304E
:1003A80080F087809C4240F28480A9F1020973445E
:1003B8001B1BADB2B3FBF8F008FB103345EA03444E
:1003C80000FB0AFAA24508D91EEB040400F1FF332A
:1003D8006BD2A24569D90238744440EA0940A0FBAF
:1003E8000289A4EB0A044C45C2464B4654D351D06B
:1003F800002E69D0B1EB0A0564EB030404FA0CFC87
:10040800FD40FC404CEA0505C6E90054002747E7D3
:10041800C2F1200320FA03F7954001FA02F021FA0D
:1004280003F34FEA154E3843010CB3FBFEF71FFAEE
:1004380085F80EFB173341EA034107FB08F38B42AB
:1004480004FA02F407D9691807F1FF3C2FD28B424E
:100458002DD9023F2944CB1A81B2B3FBFEF00EFB23
:10046800103341EA034100FB08F38B4207D96918AE
:1004780000F1FF3C17D28B4215D902382944C91A1A
:1004880040EA07473BE73746304609E70746E7E6CD
:100498001846FBE64145ABD2B8EB020A69EB0E02FF
:1004A80001381346A4E76046E9E7184695E767462A
:1004B800D1E781467CE702382C4447E7ACF1020CCF
:1004C8002B442FE7384608E73746E9E6704700BF70
:1004D80010B504460E4B18784FF47A73B3FBF0F35B
:1004E8000C4A1068B0FBF3F000F094F868B90F2CD0
:1004F80001D901200AE0002221464FF0FF3000F028
:1005080049F8034B5C60002000E0012010BD00BFEB
:10051800000000201800002008B50B4B1A6842F4B0
:1005280000721A601A6842F480621A601A6842F40B
:1005380080721A60032000F01BF80020FFF7C8FF44
:1005480001F08AF8002008BD003C0240034A116807
:10055800034B1B780B441360704700BF3800002022
:1005680000000020014B1868704700BF38000020C9
:10057800074AD36823F4E0631B041B0C000200F451
:10058800E060184340F0BF6040F40030D06070472E
:1005980000ED00E030B4174BDB68C3F30223C3F16E
:1005A8000704042C28BF04241D1D062D18D9033B5D
:1005B8004FF0FF3505FA04F421EA0401994005FAE1
:1005C80003F322EA0303194300280BDB0901C9B22C
:1005D80000F1604000F5614080F8001330BC7047BE
:1005E8000023E5E700F00F000901C9B2024B1954D6
:1005F800F4E700BF00ED00E014ED00E000F01F029A
:10060800400901239340024A42F82030704700BF56
:1006180000E100E00138B0F1807F0AD2064B586053
:10062800064AF02182F823100020986007221A60F9
:1006380070470120704700BF10E000E000ED00E0C7
:10064800042805D0054A136823F004031360704793
:10065800024A136843F004031360704710E000E097
:10066800704708B5FFF7FCFF08BD000000230F2BFB
:1006780000F2C580F0B482B039E0042200E0002224
:10068800B2403A4302345E4E46F824205D4A14686C
:10069800EA4302EA04064F6817F4803F01D045EAAE
:1006A8000406584C2660646802EA04064F6817F48A
:1006B800003F01D045EA0406524C6660A46802EA8D
:1006C80004064F6817F4801F01D045EA04064D4C14
:1006D800A660E46822404E6816F4001F01D045EA7F
:1006E8000402484CE26001330F2B00F2858001229E
:1006F8009A400C6804EA0205AA42F4D14C68022C1C
:1007080001D0122C10D1DE08083650F826C003F0AC
:100718000704A7000F24BC402CEA040C0C69BC4059
:1007280044EA0C0440F8264004685F000326BE40F3
:10073800F64306EA040C4C6804F00304BC4044EA9F
:100748000C0404604C6804F1FF3CBCF1010F03D9B0
:10075800112C01D0122C10D1846806EA040CCC6844
:10076800BC4044EA0C048460446824EA02024C68F1
:10077800C4F300149C4014434460C26816408A685D
:10078800BA403243C2604A6812F0805FABD00022A0
:1007980001921D4A546C44F480445464526C02F42F
:1007A80080420192019A9C08A61C154A52F82670AC
:1007B80003F0030296000F22B24027EA0207134A09
:1007C80090423FF45CAF02F5806290420ED002F591
:1007D800806290420CD002F5806290420AD002F505
:1007E800806290423FF449AF072249E7012247E778
:1007F800022245E7032243E702B0F0BC7047704786
:1008080000380140003C014000380240000002402E
:10081800002800F0BB8170B582B00446036813F06D
:10082800010F3BD0A74B9B6803F00C03042B2CD083
:10083800A44B9B6803F00C03082B21D06368B3F525
:10084800803F4FD0B3F5A02F52D09E4B1A6822F4A8
:1008580080321A601A6822F480221A606368002BBA
:1008680050D0FFF77FFE0546964B1B6813F4003FF8
:1008780014D1FFF777FE401B6428F5D903208AE1DD
:10088800904B5B6813F4800FD8D08E4B1B6813F421
:10089800003F03D06368002B00F07A81236813F0CF
:1008A800020F55D0874B9B6813F00C0F3ED0854B39
:1008B8009B6803F00C03082B33D0E368002B68D047
:1008C800814B01221A60FFF74DFE05467D4B1B68E0
:1008D80013F0020F54D1FFF745FE401B0228F5D94B
:1008E800032058E1774A136843F480331360B5E76F
:1008F800744B1A6842F480221A601A6842F48032F3
:100908001A60ABE7FFF72EFE05466E4B1B6813F423
:10091800003FC3D0FFF726FE401B6428F5D903200B
:1009280039E1684B5B6813F4800FC6D1654B1B68CF
:1009380013F0020F04D0E368012B01D001202AE153
:10094800604A136823F0F803216943EAC10313607E
:10095800236813F0080F40D0636963B35B4B01222F
:100968001A60FFF7FFFD0546564B5B6F13F0020F49
:1009780033D1FFF7F7FD401B0228F5D903200AE120
:10098800504A136823F0F803216943EAC10313604E
:10099800DEE74D4B00221A60FFF7E4FD0546494BA0
:1009A8001B6813F0020FD3D0FFF7DCFD401B0228B1
:1009B800F5D90320EFE0454B00221A60FFF7D2FD7E
:1009C8000546404B5B6F13F0020F06D0FFF7CAFDD8
:1009D800401B0228F5D90320DDE0236813F0040F3B
:1009E80079D0384B1B6C13F0805F33D1002301930F
:1009F800344B1A6C42F080521A641B6C03F080531B
:100A08000193019B0125324B1B6813F4807F23D08F
:100A1800A368012B34D0052B38D02A4B1A6F22F04B
:100A280001021A671A6F22F004021A67A368002BE2
:100A380036D0FFF797FD0646224B1B6F13F0020FC7
:100A480048D1FFF78FFD801B41F288339842F3D9D4
:100A58000320A0E00025D6E71D4A136843F48073FD
:100A68001360FFF77FFD0646194B1B6813F4807F60
:100A7800CED1FFF777FD801B0228F5D903208AE045
:100A8800104A136F43F001031367CFE70D4B1A6F3A
:100A980042F004021A671A6F42F001021A67C5E7AA
:100AA800FFF760FD0646074B1B6F13F0020F11D0CE
:100AB800FFF758FD801B41F288339842F3D9032091
:100AC80069E000BF0038024000004742800E4742FC
:100AD80000700040E5B9A369002B5BD0304A9268EA
:100AE80002F00C02082A58D0022B17D02D4B0022F6
:100AF8001A60FFF737FD0446294B1B6813F0007F87
:100B080042D0FFF72FFD001B0228F5D9032042E051
:100B1800234A136C23F080531364DCE7214B002233
:100B28001A60FFF71FFD05461D4B1B6813F0007F79
:100B380006D0FFF717FD401B0228F5D903202AE04D
:100B4800E369226A1343626A43EA8213A26A52087B
:100B5800013A43EA0243E26A43EA0263104A5360F5
:100B6800104B01221A60FFF7FDFC04460C4B1B6872
:100B780013F0007F06D1FFF7F5FC001B0228F5D91A
:100B8800032008E0002006E0002004E00120704770
:100B9800012000E0002002B070BD0120FBE700BF8B
:100BA8000038024060004742264B9B6803F00C0364
:100BB800042B44D0082B01D0234870472DE9F04B73
:100BC800204B5A6802F03F025B6813F4800F13D081
:100BD8001C4B5968C1F3881100231C48A1FB000174
:100BE800FFF7F6FA174B5B68C3F3014301335B0069
:100BF800B0FBF3F0BDE8F08B124B5B68C3F38813CE
:100C08001E4600275C010025E41A65EB0705A901CB
:100C180041EA9461A001001B61EB0501CB0043EAA6
:100C28005073C400A01943EB07018B0243EA9053A9
:100C38008402204619460023FFF7CAFAD2E7034880
:100C4800704700BF003802400024F40040787D015E
:100C5800002800F09D8070B504464F4B1B6803F0D8
:100C68000F038B4209D2CBB24B4A1370136803F0BF
:100C78000F038B4201D0012070BD236813F0020FCF
:100C880017D013F0040F04D0444A936843F4E05398
:100C98009360236813F0080F04D0404A936843F424
:100CA800604393603D4A936823F0F003A0680343D0
:100CB80093600D46236813F0010F32D06368012B4F
:100CC80021D09A1E012A25D9344A126812F0020F3F
:100CD80060D032498A6822F0030213438B60FFF721
:100CE80041FC06462D4B9B6803F00C036268B3EB8E
:100CF800820F16D0FFF736FC801B41F288339842EA
:100D0800F0D90320B8E7254A126812F4003FE0D171
:100D18000120B1E7214A126812F0007FD9D10120E1
:100D2800AAE71D4B1B6803F00F03AB4209D9EAB2CF
:100D3800194B1A701B6803F00F03AB4201D0012056
:100D48009AE7236813F0040F06D0144A936823F433
:100D5800E053E1680B439360236813F0080F07D052
:100D68000E4A936823F46043216943EAC103936000
:100D7800FFF71AFF094B9B68C3F30313084AD35CB8
:100D8800D840084B18600020FFF7A2FB002073E74B
:100D98000120704701206FE7003C02400038024004
:100DA8001018000818000020014B1868704700BF91
:100DB8001800002008B5FFF7F7FF044B9B68C3F342
:100DC8008223034AD35CD84008BD00BF00380240E4
:100DD8002018000808B5FFF7E7FF044B9B68C3F32A
:100DE8004233034AD35CD84008BD00BF00380240F4
:100DF800201800087047034690F83820012A1ED0B2
:100E0800012280F838200C2917D8DFE801F00716EE
:100E180016160D1616161016161613000268506BC5
:100E2800002283F8382070470268906BF8E7026860
:100E3800D06BF5E70268106CF2E70020F0E70220BB
:100E48007047704770477047704710B5044603688D
:100E58001A6912F0020F11D0DA6812F0020F0DD0E1
:100E68006FF002021A610123037603689B6913F08D
:100E7800030F70D0FFF7E6FF0023237623681A6973
:100E880012F0040F12D0DA6812F0040F0ED06FF0CF
:100E980004021A610223237623689B6913F4407FB6
:100EA8005FD02046FFF7CEFF0023237623681A6918
:100EB80012F0080F12D0DA6812F0080F0ED06FF097
:100EC80008021A61042323762368DB6913F0030FF1
:100ED8004ED02046FFF7B6FF0023237623681A6911
:100EE80012F0100F12D0DA6812F0100F0ED06FF057
:100EF80010021A61082323762368DB6913F4407F04
:100F08003DD02046FFF79EFF0023237623681A6909
:100F180012F0010F03D0DA6812F0010F36D12368FE
:100F28001A6912F0800F03D0DA6812F0800F34D1FA
:100F380023681A6912F0400F03D0DA6812F0400FE4
:100F480032D123681A6912F0200F03D0DA6812F040
:100F5800200F30D110BD00F073FA2046FFF773FF61
:100F68008AE7204600F06CFA2046FFF76CFF9BE703
:100F7800204600F065FA2046FFF765FFACE72046FB
:100F880000F05EFA2046FFF75EFFBDE76FF0010252
:100F98001A612046FFF755FFC1E76FF080021A611A
:100FA800204600F073F8C3E76FF040021A6120464C
:100FB800FFF74AFFC5E76FF020021A61204600F0EC
:100FC80064F8C7E70368234A90420ED0B0F1804F17
:100FD8000BD0A2F57C42904207D002F58062904285
:100FE80003D002F58062904203D123F070034A686F
:100FF8001343184A90421AD0B0F1804F17D0A2F587
:101008007C42904213D002F5806290420FD002F5E4
:10101800806290420BD002F59A32904207D002F5D6
:101028008062904203D002F58062904203D123F49B
:101038004073CA68134303608B68C3620B6883629A
:10104800044B984202D00123436170470B69036344
:10105800F9E700BF00000140A8B110B5044690F8B8
:1010680039305BB1022384F83930211D2068FFF73D
:10107800A9FF012384F83930002010BD80F83830EA
:10108800FFF7B8FEEEE70120704770477047000091
:101098002DE9F843044601680A6922F44052C368FE
:1010A80013430B610168CA6822F4164222F00C024D
:1010B80083680069034360690343E069034313439A
:1010C800CB6021684A6922F44072A36913434B61DB
:1010D800E369B3F5004F60D02368B84A934200F043
:1010E800148102F58062934200F00F81FFF762FEDF
:1010F80000EB800000EB80006568AD00B0FBF5F503
:10110800AF4FA7FB05356D092E01FFF753FE00EB26
:10111800800000EB80006568AD00B0FBF5F9FFF7D3
:1011280049FE00EB800000EB80006568AD00B0FB75
:10113800F5F5A7FB05356D094FF0640808FB159513
:101148002D013235A7FB05356D0905F0F00535444D
:10115800FFF730FE00EB800000EB80006668B60009
:10116800B0FBF6F6FFF726FE00EB800000EB8000F0
:1011780063689B00B0FBF3F0A7FB0030400908FB55
:1011880010684FEA081808F13208A7FB0837C7F3B8
:10119800431723682F449F600DE12368874A9342D1
:1011A8005BD002F58062934257D0FFF703FE00EB55
:1011B800800000EB800065686D00B0FBF5F5804F9E
:1011C800A7FB05356D092E01FFF7F4FD00EB800044
:1011D80000EB800065686D00B0FBF5F9FFF7EAFDEC
:1011E80000EB800000EB800065686D00B0FBF5F552
:1011F800A7FB05356D094FF0640808FB1595ED0050
:101208003235A7FB05356D096D0005F4F8753544D1
:10121800FFF7D0FD00EB800000EB800066687600E9
:10122800B0FBF6F6FFF7C6FD00EB800000EB800090
:1012380063685B00B0FBF3F3A7FB03235B0908FBC0
:1012480013684FEAC80808F13208A7FB0837C7F344
:10125800421723682F449F60ADE0FFF7BBFD00EB0A
:10126800800000EB800065686D00B0FBF5F5544F19
:10127800A7FB05356D092E01FFF7ACFD00EB8000DB
:1012880000EB800065686D00B0FBF5F9FFF7A2FD83
:1012980000EB800000EB800065686D00B0FBF5F5A1
:1012A800A7FB05356D094FF0640808FB1595ED009F
:1012B8003235A7FB05356D096D0005F4F875354421
:1012C800FFF788FD00EB800000EB80006668760081
:1012D800B0FBF6F6FFF77EFD00EB800000EB800028
:1012E80063685B00B0FBF3F3A7FB03235B0908FB10
:1012F80013684FEAC80808F13208A7FB0837C7F394
:10130800421723682F449F6055E0FFF763FD00EB09
:10131800800000EB80006568AD00B0FBF5F5284F54
:10132800A7FB05356D092E01FFF754FD00EB800082
:1013380000EB80006568AD00B0FBF5F9FFF74AFDEA
:1013480000EB800000EB80006568AD00B0FBF5F5B0
:10135800A7FB05356D094FF0640808FB15952D01AD
:101368003235A7FB05356D0905F0F0053544FFF763
:1013780031FD00EB800000EB80006668B600B0FB32
:10138800F6F6FFF727FD00EB800000EB80006368AE
:101398009B00B0FBF3F0A7FB0030400908FB106886
:1013A8004FEA081808F13208A7FB0837C7F34317B4
:1013B80023682F449F60BDE8F88300BF00100140F8
:1013C8001F85EB5158B310B5044690F839300BB36C
:1013D800242384F839302268D36823F40053D36077
:1013E8002046FFF755FE2268136923F490431361E2
:1013F8002268536923F02A0353612268D36843F4AF
:101408000053D3600020E063202384F8393084F847
:101418003A3010BD80F8383000F03CF9D8E70120A8
:10142800704708B5FFF792F8FFF71BF908BD0000F1
:1014380008B50248FFF709FD08BD00BF3C000020C1
:1014480010B50446037E012B09D0237E022B11D050
:10145800237E042B1AD0237E082B23D010BD002115
:10146800FFF7C9FC154B18602368154A1268104429
:101478005863EAE704212046FFF7BDFC0F4B1860CC
:1014880023680F4A526810449863E1E70821204610
:10149800FFF7B1FC094B18602368094A92681044A9
:1014A800D863D8E70C212046FFF7A5FC034B18604A
:1014B8002368034A126810441864CFE778000020B4
:1014C8000800002000B587B0002100910A4B1A6B74
:1014D80042F001021A631B6B03F001030093009BA7
:1014E8002023019301230293039101A90348FFF7E5
:1014F800BDF807B05DF804FB003802400000024068
:10150800FEE7000008B50748074B03604FF0FF33BC
:10151800C36001234360FFF79FFD00B908BDFFF7D3
:10152800EFFF00BF3C0000200004004000B593B06E
:10153800072306930123099308934FF480330793F5
:1015480010230A9302230C9300230D93542832D0BE
:10155800782841D032282BD108230E9332230F93B9
:101568000223109311930F220192029300230393F5
:101578004FF480520492059306A8FFF749F9002812
:101588003DD1022101A8FFF763FB002839D1FFF7FD
:101598000BFC1D4BA3FB00308009FFF73BF8042030
:1015A800FFF74EF8002211464FF0FF30FEF7F2FF2A
:1015B80013B05DF804FB08230E9354230F93022302
:1015C800109311930F2201920293002303934FF477
:1015D800805204920593CFE708230E9378230F9344
:1015E8000223109311930F22019202930023039375
:1015F8004FF4A05304934FF480530593BCE7FFF7CF
:101608007FFFFFF77DFF00BFD34D621008B5094883
:10161800094B03604FF4E133436000238360C360E8
:1016280003610C2242618361FFF7CCFE00B908BD5B
:10163800FFF766FF7C0000200044004008B5FEF775
:101648006BFF3220FFF772FFFFF73CFFFFF7DEFF6B
:10165800FFF758FFFEE7000008B50320FEF788FFF4
:101668000B4A536A43F4E0235362002211466FF099
:101678000B00FEF78FFF002211466FF00A00FEF7FD
:1016880089FF002211466FF00900FEF783FF08BDAD
:1016980000ED00E030B589B000240194184B1A6CB5
:1016A80042F400321A641A6C02F400320192019A70
:1016B80002941A6B42F001021A631B6B03F00103D8
:1016C8000293029B042303930223049301230593AB
:1016D8000694072307930B4D03A92846FEF7C6FF78
:1016E8000823039303A92846FEF7C0FF2620FEF728
:1016F80085FF22460F212620FEF74CFF09B030BD9A
:1017080000380240000002400F49D1F8883043F405
:101718007003C1F888300D4B1A6842F001021A6054
:10172800002098601A6822F0847222F480321A60CD
:10173800074A5A601A6822F480221A60D8604FF06B
:1017480000638B60704700BF00ED00E00038024086
:1017580010300024DFF834D0002103E00C4B5B5834
:10176800435004310B480C4B42189A42F6D30B4AAB
:1017780002E0002342F8043B094B9A42F9D3FFF7F1
:10178800C3FF00F011F8FFF759FF7047000002206F
:1017980038180008000000201C0000201C00002051
:1017A800BC000020FEE7000070B50D4E0D4CA41BD8
:1017B800A4100025A54209D10B4E0C4C00F018F8D6
:1017C800A41BA4100025A54205D170BD56F82530EC
:1017D80098470135EEE756F8253098470135F2E786
:1017E80030180008301800083018000834180008AD
:1017F800F8B500BFF8BC08BC9E467047F8B500BFF6
:08180800F8BC08BC9E467047C5
:1018100000000000000000000102030406070809A0
:081820000000000001020304B6
:08182800E0E9FF7F0100000070
:04183000BD010008EE
:04183400990100080E
:101838000100000010000000A8610000D430000082
:0C1848006A180000350C00000024F400B9
:040000050800175D7B
:00000001FF
